{
  "contractName": "Auth",
  "abi": [
    {
      "inputs": [],
      "stateMutability": "nonpayable",
      "type": "constructor"
    },
    {
      "anonymous": false,
      "inputs": [
        {
          "indexed": true,
          "internalType": "address",
          "name": "user",
          "type": "address"
        },
        {
          "indexed": false,
          "internalType": "string",
          "name": "role",
          "type": "string"
        }
      ],
      "name": "RoleAssigned",
      "type": "event"
    },
    {
      "inputs": [],
      "name": "admin",
      "outputs": [
        {
          "internalType": "address",
          "name": "",
          "type": "address"
        }
      ],
      "stateMutability": "view",
      "type": "function",
      "constant": true
    },
    {
      "inputs": [
        {
          "internalType": "address",
          "name": "_user",
          "type": "address"
        },
        {
          "internalType": "string",
          "name": "_role",
          "type": "string"
        }
      ],
      "name": "assignRole",
      "outputs": [],
      "stateMutability": "nonpayable",
      "type": "function"
    },
    {
      "inputs": [
        {
          "internalType": "address",
          "name": "_user",
          "type": "address"
        }
      ],
      "name": "getRole",
      "outputs": [
        {
          "internalType": "string",
          "name": "",
          "type": "string"
        }
      ],
      "stateMutability": "view",
      "type": "function",
      "constant": true
    },
    {
      "inputs": [
        {
          "internalType": "address",
          "name": "_user",
          "type": "address"
        }
      ],
      "name": "isAdmin",
      "outputs": [
        {
          "internalType": "bool",
          "name": "",
          "type": "bool"
        }
      ],
      "stateMutability": "view",
      "type": "function",
      "constant": true
    }
  ],
  "bytecode": "0x60806040523480156200001157600080fd5b50336000806101000a81548173ffffffffffffffffffffffffffffffffffffffff021916908373ffffffffffffffffffffffffffffffffffffffff1602179055506040518060400160405280600581526020017f61646d696e000000000000000000000000000000000000000000000000000000815250600160008060009054906101000a900473ffffffffffffffffffffffffffffffffffffffff1673ffffffffffffffffffffffffffffffffffffffff1673ffffffffffffffffffffffffffffffffffffffff1681526020019081526020016000209081620000f6919062000377565b506200045e565b600081519050919050565b7f4e487b7100000000000000000000000000000000000000000000000000000000600052604160045260246000fd5b7f4e487b7100000000000000000000000000000000000000000000000000000000600052602260045260246000fd5b600060028204905060018216806200017f57607f821691505b60208210810362000195576200019462000137565b5b50919050565b60008190508160005260206000209050919050565b60006020601f8301049050919050565b600082821b905092915050565b600060088302620001ff7fffffffffffffffffffffffffffffffffffffffffffffffffffffffffffffffff82620001c0565b6200020b8683620001c0565b95508019841693508086168417925050509392505050565b6000819050919050565b6000819050919050565b600062000258620002526200024c8462000223565b6200022d565b62000223565b9050919050565b6000819050919050565b620002748362000237565b6200028c62000283826200025f565b848454620001cd565b825550505050565b600090565b620002a362000294565b620002b081848462000269565b505050565b5b81811015620002d857620002cc60008262000299565b600181019050620002b6565b5050565b601f8211156200032757620002f1816200019b565b620002fc84620001b0565b810160208510156200030c578190505b620003246200031b85620001b0565b830182620002b5565b50505b505050565b600082821c905092915050565b60006200034c600019846008026200032c565b1980831691505092915050565b600062000367838362000339565b9150826002028217905092915050565b6200038282620000fd565b67ffffffffffffffff8111156200039e576200039d62000108565b5b620003aa825462000166565b620003b7828285620002dc565b600060209050601f831160018114620003ef5760008415620003da578287015190505b620003e6858262000359565b86555062000456565b601f198416620003ff866200019b565b60005b82811015620004295784890151825560018201915060208501945060208101905062000402565b8683101562000449578489015162000445601f89168262000339565b8355505b6001600288020188555050505b505050505050565b610c2f806200046e6000396000f3fe608060405234801561001057600080fd5b506004361061004c5760003560e01c806324d7806c146100515780634427673314610081578063b7dfcbee146100b1578063f851a440146100cd575b600080fd5b61006b60048036038101906100669190610489565b6100eb565b60405161007891906104d1565b60405180910390f35b61009b60048036038101906100969190610489565b610186565b6040516100a8919061057c565b60405180910390f35b6100cb60048036038101906100c691906106d3565b610257565b005b6100d56103f3565b6040516100e2919061073e565b60405180910390f35b60006040518060400160405280600581526020017f61646d696e00000000000000000000000000000000000000000000000000000081525080519060200120600160008473ffffffffffffffffffffffffffffffffffffffff1673ffffffffffffffffffffffffffffffffffffffff168152602001908152602001600020604051610176919061085c565b6040518091039020149050919050565b6060600160008373ffffffffffffffffffffffffffffffffffffffff1673ffffffffffffffffffffffffffffffffffffffff16815260200190815260200160002080546101d290610788565b80601f01602080910402602001604051908101604052809291908181526020018280546101fe90610788565b801561024b5780601f106102205761010080835404028352916020019161024b565b820191906000526020600020905b81548152906001019060200180831161022e57829003601f168201915b50505050509050919050565b60008054906101000a900473ffffffffffffffffffffffffffffffffffffffff1673ffffffffffffffffffffffffffffffffffffffff163373ffffffffffffffffffffffffffffffffffffffff16146102e5576040517f08c379a00000000000000000000000000000000000000000000000000000000081526004016102dc906108e5565b60405180910390fd5b600073ffffffffffffffffffffffffffffffffffffffff168273ffffffffffffffffffffffffffffffffffffffff1603610354576040517f08c379a000000000000000000000000000000000000000000000000000000000815260040161034b90610951565b60405180910390fd5b80600160008473ffffffffffffffffffffffffffffffffffffffff1673ffffffffffffffffffffffffffffffffffffffff16815260200190815260200160002090816103a09190610b27565b508173ffffffffffffffffffffffffffffffffffffffff167f3565795c2fb8842c21347d277937778bbcfe788b5b4f790fc5e408786cbe9c90826040516103e7919061057c565b60405180910390a25050565b60008054906101000a900473ffffffffffffffffffffffffffffffffffffffff1681565b6000604051905090565b600080fd5b600080fd5b600073ffffffffffffffffffffffffffffffffffffffff82169050919050565b60006104568261042b565b9050919050565b6104668161044b565b811461047157600080fd5b50565b6000813590506104838161045d565b92915050565b60006020828403121561049f5761049e610421565b5b60006104ad84828501610474565b91505092915050565b60008115159050919050565b6104cb816104b6565b82525050565b60006020820190506104e660008301846104c2565b92915050565b600081519050919050565b600082825260208201905092915050565b60005b8381101561052657808201518184015260208101905061050b565b60008484015250505050565b6000601f19601f8301169050919050565b600061054e826104ec565b61055881856104f7565b9350610568818560208601610508565b61057181610532565b840191505092915050565b600060208201905081810360008301526105968184610543565b905092915050565b600080fd5b600080fd5b7f4e487b7100000000000000000000000000000000000000000000000000000000600052604160045260246000fd5b6105e082610532565b810181811067ffffffffffffffff821117156105ff576105fe6105a8565b5b80604052505050565b6000610612610417565b905061061e82826105d7565b919050565b600067ffffffffffffffff82111561063e5761063d6105a8565b5b61064782610532565b9050602081019050919050565b82818337600083830152505050565b600061067661067184610623565b610608565b905082815260208101848484011115610692576106916105a3565b5b61069d848285610654565b509392505050565b600082601f8301126106ba576106b961059e565b5b81356106ca848260208601610663565b91505092915050565b600080604083850312156106ea576106e9610421565b5b60006106f885828601610474565b925050602083013567ffffffffffffffff81111561071957610718610426565b5b610725858286016106a5565b9150509250929050565b6107388161044b565b82525050565b6000602082019050610753600083018461072f565b92915050565b7f4e487b7100000000000000000000000000000000000000000000000000000000600052602260045260246000fd5b600060028204905060018216806107a057607f821691505b6020821081036107b3576107b2610759565b5b50919050565b600081905092915050565b60008190508160005260206000209050919050565b600081546107e681610788565b6107f081866107b9565b9450600182166000811461080b576001811461082057610853565b60ff1983168652811515820286019350610853565b610829856107c4565b60005b8381101561084b5781548189015260018201915060208101905061082c565b838801955050505b50505092915050565b600061086882846107d9565b915081905092915050565b7f4f6e6c792061646d696e2063616e20706572666f726d2074686973206163746960008201527f6f6e000000000000000000000000000000000000000000000000000000000000602082015250565b60006108cf6022836104f7565b91506108da82610873565b604082019050919050565b600060208201905081810360008301526108fe816108c2565b9050919050565b7f496e76616c696420616464726573730000000000000000000000000000000000600082015250565b600061093b600f836104f7565b915061094682610905565b602082019050919050565b6000602082019050818103600083015261096a8161092e565b9050919050565b60008190508160005260206000209050919050565b60006020601f8301049050919050565b600082821b905092915050565b6000600883026109d37fffffffffffffffffffffffffffffffffffffffffffffffffffffffffffffffff82610996565b6109dd8683610996565b95508019841693508086168417925050509392505050565b6000819050919050565b6000819050919050565b6000610a24610a1f610a1a846109f5565b6109ff565b6109f5565b9050919050565b6000819050919050565b610a3e83610a09565b610a52610a4a82610a2b565b8484546109a3565b825550505050565b600090565b610a67610a5a565b610a72818484610a35565b505050565b5b81811015610a9657610a8b600082610a5f565b600181019050610a78565b5050565b601f821115610adb57610aac81610971565b610ab584610986565b81016020851015610ac4578190505b610ad8610ad085610986565b830182610a77565b50505b505050565b600082821c905092915050565b6000610afe60001984600802610ae0565b1980831691505092915050565b6000610b178383610aed565b9150826002028217905092915050565b610b30826104ec565b67ffffffffffffffff811115610b4957610b486105a8565b5b610b538254610788565b610b5e828285610a9a565b600060209050601f831160018114610b915760008415610b7f578287015190505b610b898582610b0b565b865550610bf1565b601f198416610b9f86610971565b60005b82811015610bc757848901518255600182019150602085019450602081019050610ba2565b86831015610be45784890151610be0601f891682610aed565b8355505b6001600288020188555050505b50505050505056fea26469706673582212201a9f8adea0b27d79d8cd23439d91fb25a11fad471731fd9a6e2ded11d387268664736f6c63430008150033",
  "immutableReferences": {},
  "source": "// SPDX-License-Identifier: MIT\r\npragma solidity ^0.8.0;\r\n\r\ncontract Auth {\r\n    address public admin;\r\n\r\n    mapping(address => string) private roles;\r\n\r\n    event RoleAssigned(address indexed user, string role);\r\n\r\n    constructor() {\r\n        admin = msg.sender;\r\n        roles[admin] = \"admin\";\r\n    }\r\n\r\n    modifier onlyAdmin() {\r\n        require(msg.sender == admin, \"Only admin can perform this action\");\r\n        _;\r\n    }\r\n\r\n    function assignRole(address _user, string memory _role) public onlyAdmin {\r\n        require(_user != address(0), \"Invalid address\");\r\n        roles[_user] = _role;\r\n        emit RoleAssigned(_user, _role);\r\n    }\r\n\r\n    function getRole(address _user) public view returns (string memory) {\r\n        return roles[_user];\r\n    }\r\n\r\n    function isAdmin(address _user) public view returns (bool) {\r\n        return keccak256(bytes(roles[_user])) == keccak256(bytes(\"admin\"));\r\n    }\r\n}\r\n",
  "sourcePath": "C:\\Users\\Joshua\\Documents\\Project\\contracts\\Auth.sol",
  "compiler": {
    "name": "solc",
    "version": "0.8.21+commit.d9974bed.Emscripten.clang"
  },
  "schemaVersion": "3.4.16",
  "updatedAt": "2025-04-22T03:50:46.502Z",
  "networkType": "ethereum",
  "devdoc": {
    "kind": "dev",
    "methods": {},
    "version": 1
  },
  "userdoc": {
    "kind": "user",
    "methods": {},
    "version": 1
  }
}